S00C000043414D532E73726563F4
S113000033C0000041C000003FC000003DC00000FC
S11300103BC0000039C0000037C0000035C00000FC
S113002033C0000031C000002FC000002EC000000B
S11300302BC0000029C0000027C0000025C000001C
S113004023C0000021C000001FC000001DC000002C
S11300501BC0000019C0000017C0000015C000003C
S113006013C0000011C0000011241FBECFEFD8E060
S1130070DEBFCDBF21E0A0E0B1E001C01D92A132FE
S1130080B207E1F793D096C0BBCF1F920F920FB681
S11300900F9211242F933F934F935F936F937F930A
S11300A08F939F93AF93BF93CF93DF93EF93FF937C
S11300B080911F018F5F80931F0180911F018C33FA
S11300C009F058C010921F01809100018F5F809346
S11300D00001809100018C3309F049C010920001A5
S11300E0809120018F5F80932001809120018130D5
S11300F0F1F5109220013BC0FE01EE0FFF1FEC0F43
S1130100FD1FEE0FFF1FEF5FFE4F82819381892B4E
S113011049F1FE01EE0FFF1FEC0FFD1FEE0FFF1F55
S1130120EF5FFE4F90818091000198131BC0FE0188
S1130130EE0FFF1FEC0FFD1FEE0FFF1FEF5FFE4FD3
S1130140918180911F0198130DC0FE01EE0FFF1FD6
S1130150EC0FFD1FEE0FFF1FEF5FFE4F0280F381D8
S1130160E02D09952196C530D10531F603C0C0E0D4
S1130170D0E0C2CFFF91EF91DF91CF91BF91AF91CA
S11301809F918F917F916F915F914F913F912F91AB
S11301900F900FBE0F901F90189595B184B1806297
S11301A08F7784B9892F806A85B90895F6DF80E056
S10B01B090E00895F894FFCFDC
S9030000FC
