:1000000045C0000053C0000051C000004FC00000B8
:100010004DC000004BC0000049C0000047C00000B8
:1000200045C0000043C0000041C000003FC00000C8
:1000300083C000003BC0000039C0000037C0000092
:1000400035C0000033C0000031C000002FC00000E8
:100050002DC000002BC0000029C0000027C00000F8
:1000600025C0000023C0000021C000001FC0000008
:100070001DC000001BC0000019C0000017C0000018
:1000800015C0000013C0000011C0000011241FBEE5
:10009000CFEFD0E1DEBFCDBF21E0A0E0B1E001C0F5
:1000A0001D92A731B207E1F7BCD0DFC0A9CF1092F3
:1000B0000001109215011FBC1DBC1CBC87EA91E613
:1000C0009BBD8ABD8EB58C608EBD87B7806187BFB2
:1000D00008952091030130910401232B79F021E050
:1000E00030E0F901EE0FFF1FEE0FFF1FEF5FFE4F35
:1000F0000280F381E02DEF2BB9F402C020E030E064
:1001000097B79F7E97BFF901EE0FFF1FEE0FFF1FFE
:10011000EF5FFE4F808361835383428387B78061A3
:1001200087BF822F932F08952F5F3F4F25303105D2
:10013000C1F68FEF9FEF08951F920F920FB60F92A7
:1001400011242F933F934F935F936F937F938F93DC
:100150009F93AF93BF93CF93DF93EF93FF938091E0
:1001600015018F5F80931501809115018C3359F52E
:100170001092150128C0FE01EE0FFF1FEE0FFF1FAA
:10018000EF5FFE4F82819381892BC1F08091150131
:10019000FE01EE0FFF1FEE0FFF1FEF5FFE4F6181AD
:1001A00058D091110BC0FE01EE0FFF1FEE0FFF1F85
:1001B000EF5FFE4F0280F381E02D09952196C53057
:1001C000D105C9F603C0C0E0D0E0D5CFFF91EF91D3
:1001D000DF91CF91BF91AF919F918F917F916F915F
:1001E0005F914F913F912F910F900FBE0F901F90F5
:1001F000189595B184B180628F7784B9892F806A10
:1002000085B9089598B381E0892788BB089598B38C
:1002100082E0892788BB089598B384E0892788BB4A
:1002200008958FEF88BB87B3809587BBE2DF42E0FC
:1002300051E062E080E04DDF47E051E064E080E0C3
:1002400048DF4CE051E068E080E043DF30DF789445
:10025000FFCF991B79E004C0991F961708F0961BF1
:0E026000881F7A95C9F780950895F894FFCF0E
:00000001FF
