:1000000033C0000041C000003FC000003DC0000000
:100010003BC0000039C0000037C0000035C0000000
:1000200033C0000031C000002FC000002EC000000F
:100030002BC0000029C0000027C0000025C0000020
:1000400023C0000021C000001FC000001DC0000030
:100050001BC0000019C0000017C0000015C0000040
:1000600013C0000011C0000011241FBECFEFD8E064
:10007000DEBFCDBF21E0A0E0B1E001C01D92A731FD
:10008000B207E1F78BD08EC0BBCF1F920F920FB695
:100090000F9211242F933F934F935F936F937F930E
:1000A0008F939F93AF93BF93CF93DF93EF93FF9380
:1000B000809115018F5F80931501809115018C331C
:1000C00009F050C010921501809100018F5F80935C
:1000D0000001809100018C3309F041C010920001B1
:1000E000809116018F5F80931601809116018831EF
:1000F000B1F51092160133C0FE01EE0FFF1FEE0F97
:10010000FF1FEF5FFE4F82819381892B19F1FE0162
:10011000EE0FFF1FEE0FFF1FEF5FFE4F90818091EC
:100120001601981317C0FE01EE0FFF1FEE0FFF1F01
:10013000EF5FFE4F91818091000198130BC0FE018B
:10014000EE0FFF1FEE0FFF1FEF5FFE4F0280F381E8
:10015000E02D09952196C530D10571F603C0C0E0A8
:10016000D0E0CACFFF91EF91DF91CF91BF91AF91D6
:100170009F918F917F916F915F914F913F912F91BF
:100180000F900FBE0F901F90189595B184B18062AB
:100190008F7784B9892F806A85B90895F6DF80E06A
:0801A00090E00895F894FFCFF0
:00000001FF
